:100000007FC00000AEC00000ACC00000AAC000006D
:10001000A8C00000A6C00000A4C00000A2C000004C
:10002000A0C000009EC000009CC000009AC000005C
:1000300098C0000096C0000094C0000092C000006C
:1000400090C000008EC000008CC000008AC000007C
:1000500088C0000086C0000084C0000082C000008C
:1000600080C0000091C200007CC000007AC0000087
:1000700078C0000076C0000074C0000072C00000AC
:1000800070C000006EC000006CC000006AC00000BC
:100090008EC1000066C0000064C0000062C00000A5
:1000A00060C000005EC000005CC000005AC00000DC
:1000B00058C0000056C0000054C0000052C00000EC
:1000C00050C000004EC000004CC000004AC00000FC
:1000D00048C0000046C0000044C0000042C000000C
:1000E00040C00000D40CED0C060D1F0D380D510D55
:1000F0006A0D830D9C0DB50D1512AF164012DA1660
:1001000011241FBECFEFD1E2DEBFCDBF00E00CBF98
:1001100013E0A0E0B2E0E0EAF7E300E00BBF02C0CA
:1001200007900D92A234B107D9F723E0A2E4B3E01F
:1001300001C01D92A63AB207E1F710E0CEE7D0E089
:1001400000E006C021970109802FFE010E94821A5B
:10015000CC37D10780E00807A9F70E9471140C94EE
:10016000BF1B4ECF0F931F93CF93DF93EC018B01F7
:10017000188219821A821B82CB010E945B19688344
:1001800079838A839B83CB0101960E9416179D83F6
:100190008C8348815981B8010E947519DF91CF91F4
:1001A0001F910F9108958FB780688FBF82E0809371
:1001B000C80088E98093C90080E18093CC00109248
:1001C000CD0086E08093CA0080914C0390914D034E
:1001D000892B41F488EE93E00E94161790934D030B
:1001E00080934C030895E8ECF0E0908195FFFDCFFB
:1001F0008093CE000895E8ECF0E080818823ECF74E
:100200008091CE00089540914A0350914B03209174
:1002100048033091490381E04217530709F480E015
:100220000895F1DF8823F9F020914C0330914D03BC
:1002300080914A0390914B03AC014F5F5F4F509305
:100240004B0340934A03F901E80FF91F8081209185
:100250004A0330914B03283E334030F010924B0359
:1002600010924A03089580E00895AF92BF92CF9212
:10027000DF92EF92FF920F931F93CF93DF938C0146
:1002800089EE93E00E9416175C01EC01C12CD12C81
:100290007601B9DF882341F08FEFC81AD80AE80A3F
:1002A000F80ABFDF8993F5CFF501EC0DFD1D108233
:1002B000F8011082118212821382C5010E945B191B
:1002C000F8016083718382839383CB0101960E943E
:1002D0001617F8019583848340815181B5010E94EE
:1002E0007519A114B10419F0C5010E941817C801AD
:1002F000DF91CF911F910F91FF90EF90DF90CF9002
:10030000BF90AF9008950F931F93CF93DF93FC019D
:10031000A481B5818C91882379F08F01C0E0D0E071
:1003200062DF2196D8011496ED91FC911597EC0FA0
:10033000FD1F80818111F4CFDF91CF911F910F912B
:1003400008950F931F93CF93DF9300D000D0CDB7C4
:10035000DEB78C01FC0180819181A281B381898308
:100360009A83AB83BC8301960E9416179E838D836C
:10037000F80140815181648175810E947519CE0117
:100380000196C1DF8D819E81009711F00E941817A0
:100390008DE029DF8AE027DF26960FB6F894DEBFCE
:1003A0000FBECDBFDF91CF911F910F9108951F9286
:1003B0000F920FB60F9211240BB60F922F933F930B
:1003C0004F935F936F937F938F939F93AF93BF935D
:1003D000CF93DF93EF93FF93C0914C03D0914D03E4
:1003E00080914803909149039C012F5F3F4F3093C8
:1003F000490320934803C80FD91FFDDE888320914D
:100400004A0330914B038091480390914903281788
:100410003907B1F480914A0390914B030196909370
:100420004B0380934A0380914A0390914B03883E8B
:10043000934030F081E090E090934B0380934A0327
:100440008091480390914903883E934020F0109298
:10045000490310924803FF91EF91DF91CF91BF9133
:10046000AF919F918F917F916F915F914F913F914C
:100470002F910F900BBE0F900FBE0F901F901895ED
:100480008FB780688FBF82E08093C80088E980932F
:10049000C1001092C50087E68093C4008EE080936F
:1004A000C2008091460390914703892B41F488E76D
:1004B00090E00E9416179093470380934603089597
:1004C000E0ECF0E0908195FFFDCF8093C6000895A9
:1004D000E0ECF0E080818823ECF78091C60008957D
:1004E0000F931F93CF93DF93FC01A481B5818C916F
:1004F000882379F08F01C0E0D0E0E2DF2196D801B7
:100500001496ED91FC911597EC0FFD1F80818111E0
:10051000F4CFDF91CF911F910F9108950F931F9307
:10052000CF93DF9300D000D0CDB7DEB78C01FC01B4
:1005300080819181A281B38189839A83AB83BC83BB
:1005400001960E9416179E838D83F8014081518188
:10055000648175810E947519CE010196C1DF8D817C
:100560009E81009711F00E9418178DE0A9DF8AE0A4
:10057000A7DF26960FB6F894DEBF0FBECDBFDF9182
:10058000CF911F910F9108951F920F920FB60F9266
:1005900011240BB60F922F933F934F935F936F935A
:1005A0007F938F939F93AF93BF93CF93DF93EF93FB
:1005B000FF93C0914603D0914703809142039091ED
:1005C00043039C012F5F3F4F30934303209342032B
:1005D000C80FD91F7DDF88832091440330914503E4
:1005E000809142039091430328173907B1F4809119
:1005F00044039091450301969093450380934403EF
:1006000080914403909145038837910530F081E053
:1006100090E090934503809344038091420390912E
:1006200043038837910520F0109243031092420350
:10063000FF91EF91DF91CF91BF91AF919F918F91FA
:100640007F916F915F914F913F912F910F900BBED2
:100650000F900FBE0F901F901895D5DD882311F0D5
:10066000E0DDFBCF0895EF92FF920F931F93CF939E
:10067000DF93CDB7DEB762970FB6F894DEBF0FBE3B
:10068000CDBF8C017A01FA0180819181A281B38171
:100690008F839887A987BA8701960E9416179C872F
:1006A0008B87F70140815181648175810E947519A2
:1006B000CE01079646DE8B859C85009711F00E943F
:1006C0001817FFEF23ED80E3F15020408040E1F761
:1006D00000C0000098DD8823E9F3CE010D96C5DD4A
:1006E0008D859E85AF85B88989839A83AB83BC83CA
:1006F00001960E9416179E838D834D855E856989BC
:100700007A890E947519CE01019608DF8D819E813C
:10071000009711F00E941817E988FA88F8011082F2
:10072000118212821382C7010E945B19F801608353
:10073000718382839383CB0101960E941617F8017F
:100740009583848340815181B7010E9475198989FD
:100750009A89009711F00E941817C80162960FB687
:10076000F894DEBF0FBECDBFDF91CF911F910F91E7
:10077000FF90EF900895CF93DF93EC01188213DD83
:100780007FDECE016ADFDF91CF9108958F929F9235
:10079000AF92BF92EF92FF920F931F93CF93DF938D
:1007A000CDB7DEB72C970FB6F894DEBF0FBECDBF26
:1007B0007C0102E713E0F80180819181A281B3817D
:1007C00089839A83AB83BC8301960E9416179E830C
:1007D0008D83F80140815181648175810E94751972
:1007E000AE014F5F5F4FB701CE0107963CDF8D81B1
:1007F0009E81009711F00E94181786E092E00E94F7
:100800005B194B015C01CB0101960E9416177C011C
:10081000A40166E072E00E9475196F817885A701D6
:100820008B859C850E94E719192FE114F10419F0BA
:10083000C7010E9418171095111F1127111F8B85D2
:100840009C85009711F00E941817812F2C960FB6E7
:10085000F894DEBF0FBECDBFDF91CF911F910F91F6
:10086000FF90EF90BF90AF909F908F9008952F9240
:100870003F924F925F926F927F928F929F92AF9230
:10088000BF92CF92DF92EF92FF920F931F93CF937D
:10089000DF93CDB7DEB762970FB6F894DEBF0FBE19
:1008A000CDBF988B8F878B010F2EFCE6EF2EF3E0E8
:1008B000FF2EF02DD7014D905D906D907C90C20180
:1008C00001960E9416175C01F701408151816481F5
:1008D00075810E94751989E092E00E945B196B0195
:1008E0007C01CB0101960E9416171C01A60169E04C
:1008F00072E00E947519C40CD51CE61CF71CDA8A3C
:10090000C98AC60101960E9416174C014114510470
:100910006104710431F44C145D046E047F0460F0D2
:1009200017C0F501DC019501240D351D81918D93D2
:10093000E217F307D9F7EFCFD101F401E40DF51D6C
:1009400094012C0D3D1D8D9181932E173F07D9F7F2
:10095000C4018C0D9D1D9E878D87DC011C92A11406
:10096000B10419F0C5010E9418172114310419F0BF
:10097000C1010E941817F801408051806280738085
:100980004C0C5D1C6E1C7F1CC20101960E94161748
:100990005C01C114D104E104F10431F4C414D504A0
:1009A000E604F70458F024C0F401DC012D853E85EF
:1009B00081918D932E173F07D9F7F0CFF501EC0DFC
:1009C000FD1DB501640D751D49895A894A0D5B1DD0
:1009D000CF01841B950BD80114962D913C9115974E
:1009E000D901A80FB91F8C918193E617F70781F7FA
:1009F000F501E40DF51D10828114910419F0C40174
:100A00000E94181719821A821B821C82C5010E943B
:100A10005B1969837A838B839C83CB0101960E9447
:100A200016179E838D8349815A81B5010E947519DD
:100A3000AE014F5F5F4F6F857889CE01079613DE59
:100A40008D819E81009711F00E94181786E092E038
:100A50000E945B196B017C01CB0101960E94161765
:100A60008C01A60166E072E00E9475196F8178859D
:100A7000A8018B859C850E94E7197C010115110551
:100A800019F0C8010E94181711E01E141F040CF081
:100A900010E08B859C85009711F00E941817A11417
:100AA000B10419F0C5010E941817812F62960FB684
:100AB000F894DEBF0FBECDBFDF91CF911F910F9194
:100AC000FF90EF90DF90CF90BF90AF909F908F906E
:100AD0007F906F905F904F903F902F9008952F924E
:100AE0003F924F925F926F927F928F929F92AF92BE
:100AF000BF92CF92DF92EF92FF920F931F93CF930B
:100B0000DF93CDB7DEB72F970FB6F894DEBF0FBED9
:100B1000CDBF9E878D876F870F2EF6E6EF2EF3E011
:100B2000FF2EF02DF7014080518062807380C2015A
:100B300001960E9416178C01F70140815181648152
:100B400075810E94751989E092E00E945B194B0142
:100B50005C01CB0101960E9416176C01A40169E0AB
:100B600072E00E947519840C951CA61CB71CC40168
:100B700001960E9416177C0141145104610471040E
:100B800031F4481459046A047B0460F017C0F8017A
:100B9000DC019801240D351D81918D93E217F30737
:100BA000D9F7EFCFD601F701E40DF51D9701280D18
:100BB000391D8D918193E217F307D9F71701280C9E
:100BC000391CF10110820115110519F0C8010E94AC
:100BD0001817C114D10419F0C6010E941817FF8517
:100BE000FF2309F44AC08BE492E00E945B192B01B9
:100BF0003C01CB0101960E9416176C01A2016BE427
:100C000072E00E947519480C591C6A1C7B1CC201B9
:100C100001960E9416178C0181149104A104B1045D
:100C200031F484149504A604B70448F014C0F70105
:100C3000DC0181918D932E163F06D9F7F2CFD601B4
:100C4000F801E80DF91D9801240D351D8D91819352
:100C5000E217F307D9F7F801E40DF51D1082E1144E
:100C6000F10419F0C7010E941817C114D10409F446
:100C70004CC0C6010E94181748C08EE092E00E9446
:100C80005B192B013C01CB0101960E9416176C01E8
:100C9000A2016EE072E00E947519480C591C6A1C92
:100CA0007B1CC20101960E9416178C0181149104CD
:100CB000A104B10431F484149504A604B70448F0E7
:100CC00014C0F701DC0181918D932E163F06D9F7F0
:100CD000F2CFD601F801E80DF91D9801240D351D5C
:100CE0008D918193E217F307D9F7F801E40DF51D13
:100CF0001082E114F10419F0C7010E941817C11401
:100D0000D10419F0C6010E94181719821A821B8299
:100D10001C82C8010E945B1969837A838B839C8340
:100D2000CB0101960E9416179E838D8349815A81BB
:100D3000B8010E947519AE014F5F5F4F6D857E85CA
:100D4000CE01079690DC8D819E81009711F00E9464
:100D5000181786E092E00E945B194B015C01CB0101
:100D600001960E9416177C01A40166E072E00E94C1
:100D700075196F817885A7018B859C850E94E7197D
:100D80006C01E114F10419F0C7010E941817FF2447
:100D9000F3941C141D040CF0F12C8B859C8500979A
:100DA00011F00E9418170115110519F0C8010E94D1
:100DB00018178F2D2F960FB6F894DEBF0FBECDBF3C
:100DC000DF91CF911F910F91FF90EF90DF90CF9027
:100DD000BF90AF909F908F907F906F905F904F905B
:100DE0003F902F9008952F923F924F925F926F9273
:100DF0007F928F929F92AF92BF92CF92DF92EF92AB
:100E0000FF920F931F93CF93DF93CDB7DEB72F974A
:100E10000FB6F894DEBF0FBECDBF9E878D876F875C
:100E2000E0906403F0906503C7010E945B192B01F9
:100E30003C01CB0101960E9416178C01A201B7015B
:100E40000E94751989E092E00E945B194B015C01D8
:100E5000CB0101960E9416176C01A40169E072E0B3
:100E60000E947519840C951CA61CB71CC401019620
:100E70000E9416177C01411451046104710431F47D
:100E8000481459046A047B0460F017C0F801DC01BF
:100E90009801240D351D81918D93E217F307D9F741
:100EA000EFCFD601F701E40DF51D9701280D391D8F
:100EB0008D918193E217F307D9F71701280C391C9C
:100EC000F10110820115110519F0C8010E941817CF
:100ED000C114D10419F0C6010E941817FF85FF2321
:100EE00009F44BC08BE092E00E945B192B013C019E
:100EF000CB0101960E9416176C01A2016BE072E013
:100F00000E947519480C591C6A1C7B1CC201019671
:100F10000E9416178C0181149104A104B10431F4CC
:100F200084149504A604B70450F015C0F701DC0141
:100F3000910181918D932E173F07D9F7F1CFD601FB
:100F4000F801E80DF91D9801240D351D8D9181934F
:100F5000E217F307D9F7F801E40DF51D1082E1144B
:100F6000F10419F0C7010E941817C114D10409F443
:100F70004DC0C6010E94181749C08EE092E00E9441
:100F80005B192B013C01CB0101960E9416176C01E5
:100F9000A2016EE072E00E947519480C591C6A1C8F
:100FA0007B1CC20101960E9416178C0181149104CA
:100FB000A104B10431F484149504A604B70450F0DC
:100FC00015C0F701DC01910181918D932E173F0728
:100FD000D9F7F1CFD601F801E80DF91D9801240DDC
:100FE000351D8D918193E217F307D9F7F801E40DD0
:100FF000F51D1082E114F10419F0C7010E941817C1
:10100000C114D10419F0C6010E94181719821A825E
:101010001B821C82C8010E945B1969837A838B83BF
:101020009C83CB0101960E9416179E838D83498174
:101030005A81B8010E947519AE014F5F5F4F6D85EF
:101040007E85CE0107960FDB8D819E81009711F082
:101050000E94181786E092E00E945B194B015C0128
:10106000CB0101960E9416177C01A40166E072E094
:101070000E9475196F817885A7018B859C850E94D8
:10108000E7196C01E114F10419F0C7010E94181767
:10109000FF24F394CD2809F4F12C8B859C850097CF
:1010A00011F00E9418170115110519F0C8010E94CE
:1010B00018178F2D2F960FB6F894DEBF0FBECDBF39
:1010C000DF91CF911F910F91FF90EF90DF90CF9024
:1010D000BF90AF909F908F907F906F905F904F9058
:1010E0003F902F9008952F923F924F925F926F9270
:1010F0007F928F929F92AF92BF92CF92DF92EF92A8
:10110000FF920F931F93CF93DF93CDB7DEB7A897CE
:101110000FB6F894DEBF0FBECDBF4C0174D8882344
:1011200009F4CBC21D861E861F86188A80E192E0D4
:101130000E945B196D877E878F87988BCB01019604
:101140000E9416179A8B898B4D855E8560E172E04F
:101150000E947519CE010D96E1D989899A89009767
:1011600011F00E941817CE0143967FD88EE192E0CD
:101170000E945B196B017C01CB0101960E9416173E
:101180008C01A6016EE172E00E9475196B897C8961
:10119000A8018F89988D0E94E7197C01011511051E
:1011A00019F0C8010E941817FF200CF480C28EE1CC
:1011B00092E00E945B192B013C01CB0101960E9439
:1011C00016177C01A2016EE172E00E9475196B890D
:1011D0007C89A7018F89988D0E94E7196C0182E0B4
:1011E00090E00E9416178C018F89988DFC01EC0D00
:1011F000FD1D8581D8018C9311961C92C8010E9417
:101200005B196D8F7E8F8F8F98A3ED8DFE8D31963C
:10121000F8A7EFA3CF010E9416179EA38DA34D8DB3
:101220005E8DB8010E9475190115110519F0C801EC
:101230000E941817E114F10419F0C7010E94181751
:1012400083E292E00E945B196B017C01CB01019665
:101250000E9416178C01A60163E272E00E947519C4
:101260006B897C89A8018F89988D0E94E7195C01A0
:1012700088E292E00E945B192B013C01CB010196B0
:101280000E9416177C01A20168E272E00E947519A3
:101290006B897C89A7018F89988D0E94E719950138
:1012A000281B390BD90115975D01E114F10419F0E0
:1012B000C7010E9418170115110519F0C8010E94F5
:1012C000181788E292E00E945B192B013C01CB01C8
:1012D00001960E9416177C01A20168E272E00E944A
:1012E00075196B897C89A7018F89988D0E94E719F0
:1012F00004966C01C50101960E9416178C011A1400
:101300001B046CF4AF89B88DAC0DBD1DFC019C01B4
:101310002A0D3B1D8D918193E217F307D9F7F80150
:10132000EA0DFB1D1082C8010E945B192B013C01D4
:101330001B01BFEF2B1A3B0AC1010E9416175C016B
:101340005CA24BA2A201B8010E94751901151105FA
:1013500019F0C8010E941817E114F10419F0C7012F
:101360000E9418174FE36BA17CA1C5010E94C81908
:101370006C0180E692E00E945B19698F7A8F8B8FF7
:101380009C8F898D9A8D01960E9416179AA389A326
:10139000498D5A8D60E672E00E947519DD200CF4CB
:1013A000B2C0EBA0FCA0EFEFEE1AFE0A8BA19CA14D
:1013B00002960E9416178C011E141F045CF4D501BE
:1013C000AC0DBD1DFC01280E391E8D9181932E168A
:1013D0003F06D9F7F801EE0DFF1D1082C8010E94EB
:1013E0005B19698F7A8F8B8F9C8F298C3A8C710156
:1013F000FFEFEF1AFF0AC7010E9416173C01498C44
:101400005A8CA201B8010E9475190115110519F035
:10141000C8010E94181729A13AA12115310519F018
:10142000C9010E941817C1010E9416179AA389A327
:10143000A201B3010E947519C7010E9416178C0101
:10144000A20169A17AA10E9475190115110519F06F
:10145000C8010E9418176114710419F0C3010E9499
:101460001817C60101960E9416177C011C141D0452
:1014700054F4F501DC0195012C0D3D1D81918D93F6
:101480002E173F07D9F7F701EC0DFD1D1082C7019C
:101490000E945B192B013C017CA36BA38B010F5FA6
:1014A0001F4FC8010E9416176C011201A201B7015B
:1014B0000E947519E114F10419F0C7010E94181770
:1014C000A114B10419F0C5010E9418178BA19CA1A9
:1014D0000E9416175C01A101B6010E947519C8018E
:1014E0000E9416178C01A101B5010E947519011502
:1014F000110519F0C8010E941817C114D10419F080
:10150000C6010E9418171F82188619861A868CE257
:1015100092E00E945B196F83788789879A87CB0155
:1015200001960E9416179C878B874F8158856CE225
:1015300072E00E947519CE0107960E948E028B857B
:101540009C85009711F00E9418178D8D9E8DAF8D90
:10155000B8A189839A83AB83BC838FA198A50E948D
:1015600016179E838D834D8D5E8D6DA17EA10E9489
:101570007519CE0101960E948E028D819E81009781
:1015800011F00E9418178FA198A50E9416177C01D0
:101590004D8D5E8D6DA17EA10E947519D2011196AF
:1015A000BCA3ABA3CD010E9416176C01A201B5012B
:1015B0000E947519298C3A8CBFEF2B1A3B0AC10186
:1015C0000E9416178C01498D5A8D69A17AA10E943B
:1015D00075198D8D9E8DAF8DB8A1F4018083918397
:1015E000A283B3838FA198A50E941617D4011596E4
:1015F0009C938E9314974D8D5E8DB7010E94751943
:10160000F40146825782608671868BA19CA10E945C
:101610001617D4011B969C938E931A97A201B601BC
:101620000E947519898D9A8DAB8DBC8DF4018487CC
:101630009587A687B787C1010E941617D4015196D6
:101640009C938E935097498D5A8DB8010E947519BD
:101650000115110519F0C8010E941817C114D10411
:1016600019F0C6010E941817E114F10419F0C7011E
:101670000E941817E9A1FAA1309719F0CF010E9432
:101680001817A114B10419F0C5010E9418172DA153
:101690003EA12115310519F0C9010E9418178F8943
:1016A000988D009709F446C00E94181743C08F898F
:1016B000988D009711F00E941817D4011D921D9269
:1016C0001D921C9213978AE492E00E945B19F40128
:1016D0006083718382839383CB0101960E941617E6
:1016E000D40115969C938E9314974D915C916AE466
:1016F00072E00E947519F401168217821086118615
:1017000081E090E00E941617D4011B969C938E9363
:101710001A97FC0110821C961D921D921D921C921C
:101720001F9781E090E00E941617F401918B808B47
:10173000DC011C92C401A8960FB6F894DEBF0FBE60
:10174000CDBFDF91CF911F910F91FF90EF90DF9070
:10175000CF90BF90AF909F908F907F906F905F9051
:101760004F903F902F9008952F923F924F925F920B
:101770006F927F928F929F92AF92BF92CF92DF92A1
:10178000EF92FF920F931F93CF93DF93CDB7DEB706
:1017900062970FB6F894DEBF0FBECDBF988B8F87D0
:1017A0008B010F2EFEE4EF2EF3E0FF2EF02DD7017C
:1017B0004D905D906D907C90C20101960E9416172D
:1017C0005C01F70140815181648175810E94751926
:1017D00089E092E00E945B196B017C01CB010196CC
:1017E0000E9416171C01A60169E072E00E9475199B
:1017F000C40CD51CE61CF71CDA8AC98AC6010196FE
:101800000E9416174C01411451046104710431F413
:101810004C145D046E047F0460F017C0F501DC0118
:10182000C501840D951D21912D93E817F907D9F76E
:10183000EFCFD101F401E40DF51D94012C0D3D1DF8
:101840008D9181932E173F07D9F7C4018C0D9D1DF3
:101850009E878D87DC011C92A114B10419F0C5018B
:101860000E9418172114310419F0C1010E941817A1
:10187000F80140805180628073804C0C5D1C6E1CAE
:101880007F1C1201FFEF2F1A3F0AC1010E94161799
:101890005C01C114D104E104F10431F4C414D50491
:1018A000E604F70458F024C0F401DC012D853E85E0
:1018B00081918D932E173F07D9F7F0CFF501EC0DED
:1018C000FD1DB501640D751D49895A894A0D5B1DC1
:1018D000CF01841B950BD80114962D913C9115973F
:1018E000D901A80FB91F8C9181936E177F0781F7DB
:1018F000F501E40DF51D10828114910419F0C40165
:101900000E94181749825A826B827C82C1010E9410
:1019100016179E838D83A201B5010E947519AE0131
:101920004F5F5F4F6F857889CE0107960E94330322
:101930008B859C85009711F00E9418178D819E81E0
:10194000009711F00E941817A114B10419F0C501F5
:101950000E94181762960FB6F894DEBF0FBECDBF77
:10196000DF91CF911F910F91FF90EF90DF90CF907B
:10197000BF90AF909F908F907F906F905F904F90AF
:101980003F902F9008950C9403010895CF93DF9317
:10199000EC016A30710508F001C1FB018827EE589F
:1019A000FF4F8F4F0C94821A188219821A821B8261
:1019B0008EE092E00E945B19688379838A839B831F
:1019C000CB0101960E9416179D838C834881598113
:1019D0006EE072E00E947519F9C0188219821A82AD
:1019E0001B828BE492E00E945B19688379838A836F
:1019F0009B83CB0101960E9416179D838C8348819F
:101A000059816BE472E00E947519E0C01882198256
:101A10001A821B828DE492E00E945B1968837983AD
:101A20008A839B83CB0101960E9416179D838C832A
:101A3000488159816DE472E00E947519C7C018820F
:101A400019821A821B828FE492E00E945B196883DC
:101A500079838A839B83CB0101960E9416179D830D
:101A60008C83488159816FE472E00E947519AEC081
:101A7000188219821A821B8281E592E00E945B190A
:101A8000688379838A839B83CB0101960E94161712
:101A90009D838C834881598161E572E00E947519AC
:101AA00095C0188219821A821B8283E592E00E94F7
:101AB0005B19688379838A839B83CB0101960E949B
:101AC00016179D838C834881598163E572E00E94DB
:101AD00075197CC0188219821A821B8285E592E0F2
:101AE0000E945B19688379838A839B83CB0101966B
:101AF0000E9416179D838C834881598165E572E0A9
:101B00000E94751963C0188219821A821B8287E5A8
:101B100092E00E945B19688379838A839B83CB015F
:101B200001960E9416179D838C834881598167E531
:101B300072E00E9475194AC0188219821A821B82AB
:101B400089E592E00E945B19688379838A839B838D
:101B5000CB0101960E9416179D838C834881598181
:101B600069E572E00E94751931C0188219821A82E3
:101B70001B828BE592E00E945B19688379838A83DC
:101B80009B83CB0101960E9416179D838C8348810D
:101B900059816BE572E00E94751918C0188219828C
:101BA0001A821B828EE092E00E945B19688379831F
:101BB0008A839B83CB0101960E9416179D838C8399
:101BC000488159816EE072E00E947519CE01DF9163
:101BD000CF9108952F923F924F925F926F927F9292
:101BE0008F929F92AF92BF92CF92DF92EF92FF922D
:101BF0000F931F93CF93DF93CDB7DEB766970FB6E2
:101C0000F894DEBF0FBECDBF1C017E876D8780E6D6
:101C100092E00E945B192B013C017B01CB010196F4
:101C20000E9416176C01A20160E672E00E9475190D
:101C300080E692E00E945B196F87788B898B9A8B84
:101C40008F85988901960E9416179C8B8B8B4F85E8
:101C5000588960E672E00E9475198D859E859923EA
:101C60000CF047C08DE592E00E945B196F87788B7E
:101C7000898B9A8BAF85B889BE8BAD8B8D010F5F39
:101C80001F4FC8010E9416174C01AF84B888A501E8
:101C90006DE572E00E947519EB89FC89309719F0A7
:101CA000CF010E9418178D899E890E9416179C8B60
:101CB0008B8BA501B4010E947519C8010E941617EB
:101CC0008C01A5016B897C890E947519011511058C
:101CD00019F0C8010E9418178114910419F0C40169
:101CE0000E9418178D859E859195819591099E87F3
:101CF0008D87AD85BE85AA30B1052CF01A161B065E
:101D00000CF0B9C053C06D857E85CE0107963EDECE
:101D10008F809884A984BA84840C951CA61CB71C57
:101D20009E868D86C40101960E9416178C0141146F
:101D300051046104710431F4481459046A047B04A9
:101D400060F021C0F601DC0196012E0D3F1D81914E
:101D50008D93E217F307D9F7EFCFF801E40DF51DE6
:101D60006D857E85600F711FA8014E0D5F1DCF012F
:101D7000841B950BAB85BC85A80FB91F8C918193F3
:101D8000E617F707A1F7ED85FE85E00FF11F10823A
:101D9000C114D10419F0C6010E9418178B859C85C7
:101DA000009709F46BC00E94181768C08D859E8546
:101DB0006AE070E00E946F1ABC01CE010196E6DD78
:101DC00089809A80AB80BC80840C951CA61CB71CB3
:101DD0007401C40101960E9416178C01411451042C
:101DE0006104710459F4D301C20102C0D301C201DC
:101DF00088159905AA05BB0560F01FC0F601DC0136
:101E00009601240D351D81918D932E173F07D9F72B
:101E1000EDCFD801A80FB91F98012E0D3F1D400E20
:101E2000511ECD0184199509ED81FE81E80FF91F3E
:101E300080818D932A173B07A1F7F801EE0DFF1D56
:101E40001082C114D10411F0C601F2D78D819E8198
:101E5000009709F0EDD78D859E856AE070E00E94BD
:101E60006F1A7E876D8724013501680116161706E3
:101E70000CF49CCF03C0860153014201C8010E94AB
:101E80005B196B017C012B01BFEF4B1A5B0AC2018E
:101E9000CDD73C01A601B8010E947519E1E08E1A68
:101EA0009108A108B108D1F0F4013196E60DF71DB3
:101EB000D30140E050E0BA0182919C9190838D93D0
:101EC0004F5F5F4F6F4F7F4F81E0881A9108A108E5
:101ED000B108481559056A057B0570F30115110510
:101EE00011F0C801A5D7C601A1D75C01A601B301B5
:101EF0000E947519C2019AD78C01A601B5010E94F2
:101F000075190115110511F0C80192D761147104FA
:101F100011F0C3018DD78F859889A989BA89F101FC
:101F200080839183A283B3838F85988901967ED71E
:101F3000D10115969C938E9314974F8558896B8980
:101F40007C890E947519F10180819181A281B38100
:101F5000C80ED91EEA1EFB1E04811581C60101961A
:101F600065D7D10115969C938E9314978D919D9171
:101F70000D90BC91A02D892B8A2B8B2B49F440E02E
:101F800050E0BA014C155D056E057F0500F139C0C2
:101F900040E050E0BA019801F90181919F01D1011F
:101FA0001496ED91FC911597DF01A40FB51F8C934A
:101FB0004F5F5F4F6F4F7F4FF10180819181A28111
:101FC000B381481759076A077B0730F3DBCFD1018C
:101FD0008D919C911197FA01E81BF90BEA0DFB1DFD
:101FE00080811496ED91FC911597E40FF51F808385
:101FF0004F5F5F4F6F4F7F4FC416D506E606F7065B
:1020000031F7D1011496ED91FC911597EC0DFD1D62
:102010001082F101C082D182E282F38201151105A2
:1020200011F0C80105D78B899C89009709F000D76A
:10203000A114B10411F0C501FBD6C10166960FB61B
:10204000F894DEBF0FBECDBFDF91CF911F910F91EE
:10205000FF90EF90DF90CF90BF90AF909F908F90C8
:102060007F906F905F904F903F902F9008952F92A8
:102070003F924F925F926F927F928F929F92AF9218
:10208000BF92CF92DF92EF92FF920F931F93CF9365
:10209000DF93CDB7DEB7AC970FB6F894DEBF0FBEB7
:1020A000CDBF9AA789A73B015EA34DA30AE513E024
:1020B000D8018D909D90AD90BC90C4010196B6D68C
:1020C0001C01F80140815181648175810E9475195C
:1020D00089E092E00E945B196B017C01CB010196C3
:1020E000A5D68C01A60169E072E00E947519C80CA2
:1020F000D91CEA1CFB1CDCA6CBA6C601019696D611
:102100002C0181149104A104B10431F48C149D04B8
:10211000AE04BF0460F017C0F101DC01C101880DFD
:10212000991D21912D93E817F907D9F7EFCFD80121
:10213000F201E80DF91D92012C0D3D1D8D91819349
:10214000E217F307D9F7C2018C0D9D1D98A78FA345
:10215000DC011C922114310411F0C10169D6011572
:10216000110511F0C80164D6F30180809180A2802E
:10217000B3808C0C9D1CAE1CBF1CC401019656D6AE
:102180008C01C114D104E104F10431F4C814D90460
:10219000EA04FB0458F024C0F201DC018FA198A5E9
:1021A00021912D93E817F907D9F7F0CFF801EC0D3D
:1021B000FD1DB801680D791D4BA55CA5400F511F91
:1021C000CF01841B950BD30114962D913C9115974B
:1021D000D901A80FB91F8C918193E617F70781F7F2
:1021E0001801280C391CF10110824114510411F01E
:1021F000C2011ED68FE592E00E945B196B017C0143
:10220000CB01019613D62C01A6016FE572E00E9466
:102210007519C80CD91CEA1CFB1CD8A6CFA2C60194
:10222000019604D63C0181149104A104B10431F457
:102230008C149D04AE04BF0450F015C0F801DC01FD
:10224000C10121912D938E179F07D9F7F1CFD201AC
:10225000F301E80DF91D93012C0D3D1D8D91819326
:102260002E173F07D9F713012C0C3D1CD1011C92EE
:102270000115110511F0C801DBD54114510411F00D
:10228000C201D6D5EDA1FEA160817181CE014F962C
:10229000A1DC8F8C98A0A9A0BAA08C0C9D1CAE1CB0
:1022A000BF1C2401FFEF4F1A5F0AC201BFD58C018A
:1022B000C114D104E104F10431F4C814D904EA04CE
:1022C000FB0448F01FC0F301DC0181918D93E215FE
:1022D000F305D9F7F2CFF801EC0DFD1DB801680D3B
:1022E000791D4FA158A5400F511FCF01841B950B9D
:1022F0002BA13CA1D901A80FB91F8C918193E6179E
:10230000F70799F7F801E80DF91D108261147104BF
:1023100011F0C3018DD58BA19CA1009709F088D540
:102320008B8A9C8AAD8ABE8AC20180D5988F8F8B9A
:10233000A401B801DAD7AE014D5E5F4F69A57AA559
:10234000CE0149960E9433038D8D9E8D009709F032
:102350006FD58F89988D009709F06AD51D861E86E6
:102360001F86188A81E692E0A6D76D877E878F87C1
:10237000988BCB0101965AD59A8B898B4D855E85BA
:1023800061E672E0B2D7CE010D960E948E02898975
:102390009A89009709F04CD5EDA1FEA18081918129
:1023A000A281B38189839A83AB83BC8301963ED596
:1023B0009E838D83ADA1BEA14D915C911197149622
:1023C0006D917C91159791D7AE014F5F5F4F69A5D5
:1023D0007AA5CE0107960E9433038B859C850097D2
:1023E00009F026D58D819E81009709F021D5011530
:1023F000110511F0C8011CD5AC960FB6F894DEBFDC
:102400000FBECDBFDF91CF911F910F91FF90EF9045
:10241000DF90CF90BF90AF909F908F907F906F9004
:102420005F904F903F902F9008956CE672E082E7A6
:1024300093E00E94B20063E772E08CE693E00E94B2
:10244000B2006DE772E086E693E00E94B20067E8B2
:1024500072E080E693E00E94B20064E972E08AE5EF
:1024600093E00E94B2006FE972E084E593E00E947D
:10247000B2006CEA72E08EE493E00C94B20008952E
:102480008091520390915303009709F0D1D4809129
:10249000580390915903009709F0CAD480915E03C4
:1024A00090915F03009709F0C3D4809164039091E9
:1024B0006503009709F0BCD480916A0390916B0387
:1024C000009709F0B5D48091700390917103009743
:1024D00009F0AED48091760390917703009709F0CC
:1024E000A7C408950F931F93CF93DF938C01EB0143
:1024F000FC01108211821282138288819981AA8143
:10250000BB8180839183A283B38388819981019663
:102510008DD4F80195838483488159816C817D81B4
:10252000E4D6DF91CF911F910F910895EF92FF9222
:102530001F93CF93DF9300D000D0CDB7DEB77C01DF
:102540000E94C603882381F119821A821B821C8291
:102550008DE492E0B0D669837A838B839C83CB0130
:10256000019664D49E838D8349815A816DE472E023
:10257000BCD6BE016F5F7F4FC7010E943704182F82
:102580008D819E81009709F053D4112371F061E091
:10259000C7010E946F05182F882339F061E0C70139
:1025A0000E94F306182F01C010E0F7011383812F5A
:1025B00026960FB6F894DEBF0FBECDBFDF91CF9148
:1025C0001F91FF90EF9008958F929F92AF92BF92CC
:1025D000CF92DF92EF92FF920F931F93CF93DF93EF
:1025E0008C01FC01C685D785209709F460C0EE8474
:1025F000FF84E114F10409F44BC0F701C684D784C9
:10260000C114D104A9F1F601868497848114910440
:10261000F1F0F401A684B784A114B10439F0C50126
:10262000D3DFC501FFD3F40117861686F401828536
:102630009385009709F0FCD3F4018481958100977C
:1026400009F0F6D3C401EED3F60117861686F6011B
:1026500082859385009709F0EBD3F60184819581FB
:10266000009709F0E5D3C601DDD3F701178616867A
:10267000F70182859385009709F0DAD3F701848109
:102680009581009709F0D4D3C701CCD31F861E864D
:102690008A859B85009709F0CBD38C819D8100971B
:1026A00009F0C6D3CE01BED3F80117861686F8010D
:1026B00082859385009709F0BBD3F80184819581C9
:1026C000009709F0B5D3DF91CF911F910F91FF9043
:1026D000EF90DF90CF90BF90AF909F908F90089534
:1026E0002F923F924F925F926F927F928F929F9222
:1026F000AF92BF92CF92DF92EF92FF920F931F9310
:10270000CF93DF93DC011196CD90DC901297C1142A
:10271000D10409F4D3C0F60186859785009709F0A6
:1027200087D3D6018D919C91181619060CF0BCC068
:1027300000E010E0D6011896ED91FC911997C801C0
:10274000880F991FE80FF91FC081D181209709F4E4
:10275000A2C0EE84FF84E114F10409F490C0F701F3
:10276000868497848114910409F477C0D4011E965D
:102770006D907C901F976114710409F459C0F301A6
:10278000468457844114510409F43FC0D2011E9677
:102790002D903C901F972114310411F1F101A68472
:1027A000B784A114B10449F0C5010EDFC5013AD3C5
:1027B000D1011F961C921E921E97F101828593856E
:1027C000009709F035D3D10114968D919C911597FE
:1027D000009709F02DD3C10125D3F2011786168683
:1027E000D2011A968D919C911B97009709F020D3E6
:1027F000F20184819581009709F01AD3C20112D3A6
:10280000D3011F961C921E921E97F3018285938519
:10281000009709F00DD3D30114968D919C911597D3
:10282000009709F005D3C301FDD2F401178616867F
:10283000D4011A968D919C911B97009709F0F8D2BC
:10284000F40184819581009709F0F2D2C401EAD2A3
:10285000D7011F961C921E921E97F70182859385C1
:10286000009709F0E5D2D70114968D919C911597A8
:10287000009709F0DDD2C701D5D21F861E868A8552
:102880009B85009709F0D4D28C819D81009709F037
:10289000CFD2CE01C7D20F5F1F4FF6018081918149
:1028A000081719070CF446CFD60118968D919C9104
:1028B0001997009709F0BCD2C601B4D2DF91CF912D
:1028C0001F910F91FF90EF90DF90CF90BF90AF904E
:1028D0009F908F907F906F905F904F903F902F9040
:1028E00008954F925F926F927F928F929F92AF92D4
:1028F000BF92CF92DF92EF92FF920F931F93CF93ED
:10290000DF93CDB7DEB7C656D1090FB6F894DEBF58
:102910000FBECDBFCE018F5B9F4F0E94BB0382E1F4
:1029200090E07AD28C018AE090E0D80111969C93D5
:102930008E9313961C921E92129780E090E0A0E472
:10294000BFE3F80184839583A683B78384E190E095
:102950006DD29C012C5E3F4FFC0111921192E21747
:10296000F307D9F7D80119969C938E9318978D91F8
:102970009C9118161906A4F480E090E09C01220FA7
:10298000331FD8011896ED91FC911997E20FF31FB0
:102990001182108201962D913C918217930774F356
:1029A000F801128613861486158688EB92E083D48C
:1029B000D8011A966D937D938D939C931D97CB01AF
:1029C000019634D2F801978786874285538568EB54
:1029D00072E08BD4D80151961C921E925097249687
:1029E0001FAF0EAF249725961FAE259762EC72E0BD
:1029F000CE01CB960E94B200BE01655C7F4FCE0136
:102A00008B5B9F4F6FDD2D961FAE1EAE2D972196CF
:102A10008EAD9FAD2197009709F00AD2BE016B5B86
:102A20007F4FCE01C3965EDD2D968EAD9FAD2D9767
:102A30009AAF89AF60E473E0CE018D960E94B20038
:102A40008BA99CA9ADA9BEA98F8F98A3A9A3BAA34E
:102A50000196ECD19CA38BA34BA95CA96FA978AD7F
:102A600044D489AD9AAD9EA38DA38DA59EA5AFA597
:102A7000B8A98FA398A7A9A7BAA70196D7D19CA751
:102A80008BA74DA55EA569A97AA92FD4AE01415E99
:102A90005F4FBE01695D7F4F24968EAD9FAD249739
:102AA000C0D28BA59CA5009709F0C2D18BA19CA197
:102AB000009709F0BDD189A99AA9009709F0B8D16A
:102AC0008FA998AD009709F0B3D1CE018F5B9F4FCE
:102AD0002DDD81111FC15E01B1E4AB0EB11C8A2C4A
:102AE0009B2CF50183818823E1F3882D992D0E9489
:102AF000C30C8823B1F3682D792DCE01835B9F4FE2
:102B00000E9473088AE492E0D6D36B017C01CB016A
:102B100001968CD18C01A6016AE472E0E6D3B8017B
:102B200063968EAD9FAD6397EFD37C0101151105C0
:102B300011F0C8017DD1EF2809F4D5C067968CAD9E
:102B40009DADAEADBFAD67978F839887A987BA87D4
:102B500001966CD19C878B8765964EAD5FAD65976E
:102B600069966EAD7FAD6997C0D3D50111966D9111
:102B70007C911297AE01495F5F4FCE01815A9F4F02
:102B8000DED28B859C85009709F052D16D964CACB6
:102B90005DAC6EAC7FAC6D977201BFEFEB1AFB0AB8
:102BA000C70144D18C016B964EAD5FAD6B976F96AC
:102BB0006EAD7FAD6F9799D3A796EEADFFADA7979A
:102BC000309709F10190F081E02DC080D1804982D9
:102BD0005A826B827C82C70129D19E838D83A20198
:102BE000B80183D3A7966EAD7FADA797AE014F5FB7
:102BF0005F4FCE010D96F60119958D819E8100974C
:102C0000C9F016D117C0A3968CAD9DADAEADBFADCA
:102C1000A3978D879E87AF87B88B019607D19A8B34
:102C2000898BA1964EAD5FADA197A5966EAD7FAD98
:102C3000A5975BD361968CAD9DADAEADBFAD6197F1
:102C40008B8B9C8BAD8BBE8B0196F0D0988F8F8B2E
:102C50002F964EAD5FAD2F9763966EAD7FAD6397A8
:102C600044D3AE01435F5F4FBE016D5E7F4F882D41
:102C7000992DFDD98F89988D009709F0D9D0898930
:102C80009A89009709F0D4D00115110511F0C801F7
:102C9000CFD061968CAD9DADAEADBFAD6197898F44
:102CA0009A8FAB8FBC8F0196C1D09E8F8D8F2F9640
:102CB0004EAD5FAD2F9763966EAD7FAD639715D325
:102CC000BE01675E7F4F882D992D0E94B40B8D8DBC
:102CD0009E8D009709F0ACD0A5968EAD9FADA597BF
:102CE000009709F0A5D06F968EAD9FAD6F970097B6
:102CF00009F09ED069968EAD9FAD6997009709F057
:102D000097D063968EAD9FAD6397009709F4E9CE97
:102D10008FD0E7CE2B968EAD9FAD2B97009709F005
:102D200087D0CE018F5B9F4FDBDC80E090E0CA59FB
:102D3000DF4F0FB6F894DEBF0FBECDBFDF91CF914E
:102D40001F910F91FF90EF90DF90CF90BF90AF90C9
:102D50009F908F907F906F905F904F9008956CE65A
:102D600072E08CE993E00E94B20063E772E086E9CA
:102D700093E00E94B2006DE772E080E993E00E9468
:102D8000B20067E872E08AE893E00E94B20064E96A
:102D900072E084E893E00E94B2006FE972E08EE78F
:102DA00093E00E94B2006CEA72E088E793E00C9432
:102DB000B200089580917C0390917D03009709F003
:102DC00037D08091820390918303009709F030D02F
:102DD0008091880390918903009709F029D0809110
:102DE0008E0390918F03009709F022D08091940375
:102DF00090919503009709F01BD080919A039091D0
:102E00009B03009709F014D08091A0039091A10337
:102E1000009709F00DC00895009711F481E090E04B
:102E20008DC30895009709F021C40895F5CF089542
:102E3000009709F01BC408952F923F924F925F9222
:102E40006F927F928F929F92AF92BF92CF92DF92BA
:102E5000EF92FF920F931F93CF93DF93CDB7DEB71F
:102E60002A970FB6F894DEBF0FBECDBF7C017A83E0
:102E700069836A01CB0117D3D7016D917C912FD360
:102E80008C01000F111FD7011896ED91FC91199735
:102E9000E00FF11FA080B180A114B104A9F0E98175
:102EA000FA8164817581D50114968D919C91159755
:102EB0002BD2892B19F4C50106969AC0F501A68478
:102EC000B784A114B10459F7A981BA818D909D905E
:102ED000AD90BC90F4013196F887EF83CF01A6DF67
:102EE0009C838B83A981BA814D915C911197149633
:102EF0006D917C911597F9D1F601408051806280E7
:102F00007380C20101969E838D8390DF9A838983AB
:102F1000D6014D915C91119714966D917C91159706
:102F2000E4D1F601C680D78080E190E075DF9A8712
:102F30008987D7011896ED91FC911997E00FF11F41
:102F400020803180FC0180829182A282B3828F81B5
:102F500098856CDFA985BA8515969C938E931497F6
:102F6000A4016B817C81C1D1E985FA8546825782B3
:102F7000608671868D819E8159DFA985BA851B96F1
:102F80009C938E931A97A20169817A81AED1E985CB
:102F9000FA85D586C48637862686D7011896ED91A0
:102FA000FC911997E00FF11F89859A8591838083A1
:102FB000A981BA81109711F0CD013ADFEB81FC8134
:102FC000309711F0CF0134DFD70112968D919C918B
:102FD0001397019613969C938E93129718968D9142
:102FE0009C911997FC01E00FF11F80819181069659
:102FF0002A960FB6F894DEBF0FBECDBFDF91CF91FA
:103000001F910F91FF90EF90DF90CF90BF90AF9006
:103010009F908F907F906F905F904F903F902F90F8
:103020000895CF92DF92EF92FF920F931F93CF9369
:10303000DF93CDB7DEB72E970FB6F894DEBF0FBE85
:10304000CDBF6C017B018A01FA0180819181A2814F
:10305000B3818F839887A987BA870196E7DE9C871B
:103060008B87F80140815181648175813ED1F801DF
:10307000868197819E878D87F70180819181A281CA
:10308000B38189839A83AB83BC830196CFDE9E8311
:103090008D83F701408151816481758126D1AE0114
:1030A000495F5F4FBE016F5F7F4FC601C5DE8D81F7
:1030B0009E81009709F0BCDE8B859C85009709F006
:1030C000B7DE2E960FB6F894DEBF0FBECDBFDF91F0
:1030D000CF911F910F91FF90EF90DF90CF900895C7
:1030E0000F931F93CF93DF93EC018B01CB01DBD1C7
:1030F00068817981F4D1880F991FE885F985E80FF7
:10310000F91FC081D181209799F0F8016481758100
:103110008C819D81F9D0892B19F4CE0106960AC0C5
:103120000E84DF85C02D209781F780E090E002C0FB
:1031300080E090E0DF91CF911F910F9108954F9221
:103140005F926F927F92AF92BF92CF92DF92EF9297
:10315000FF920F931F93CF93DF93CDB7DEB72C97DA
:103160000FB6F894DEBF0FBECDBF7C016B018A01A4
:10317000FA0180819181A281B3818F839887A98789
:10318000BA87019653DE9C878B87F8014081518175
:1031900064817581AAD0BE01695F7F4FC601A0DF3F
:1031A0005C018B859C85009709F042DEAB2809F411
:1031B00049C0F80180819181A281B38189839A837A
:1031C000AB83BC83019632DE9E838D83F801408100
:1031D00051816481758189D0BE016F5F7F4FC601C7
:1031E0007FDF8C01FC01408051806280738052013E
:1031F000FFEFAF1ABF0AC50119DE6C01F80140816B
:1032000051816481758171D0F801068117818D81AA
:103210009E81009709F00CDEF701408251826282A4
:103220007382C50103DEF70195838483A201B60191
:103230005CD0F70117830683C114D10431F1C601B4
:10324000F7DD23C0F7011082118212821382F6018A
:1032500082859385A485B585F70180839183A283B8
:10326000B383F601828593850196E0DDF7019583AE
:103270008483F601428553856685778536D0F601CD
:1032800080899189F70197838683C7012C960FB6B1
:10329000F894DEBF0FBECDBFDF91CF911F910F918C
:1032A000FF90EF90DF90CF90BF90AF907F906F90A6
:1032B0005F904F900895CF92DF92EF92FF92FC01C2
:1032C00060E070E0CB0102C0C701B6016B017C0178
:1032D0002FEFC21AD20AE20AF20A21912111F4CF89
:1032E000FF90EF90DF90CF900895552364F0A62FC4
:1032F000B72FE82FF92F80E090E02D9121930196D0
:1033000048175907D4F70895CF93DF93FC01208124
:10331000222309F1FB014081442361F130E0241BA9
:103320003109A9F4FC013196DB01119640E050E02F
:1033300007C09D91992301F130E0291B310949F41F
:103340004F5F5F4FEA0121912111F3CF06C0C90100
:103350001CC0C9011AC0C0E0D0E0C60FD71F81E071
:1033600090E02881211102C080E090E09195819544
:1033700091090BC0C0E0D0E0C60FD71F31E020E0BC
:103380008881811130E0832F922FDF91CF910895B2
:10339000161617069CF4FC012081421791F0319615
:1033A00020E030E003C08191841771F02F5F3F4F20
:1033B00062177307C1F78FEF9FEF08958FEF9FEFAD
:1033C000089580E090E00895822F932F08958F92C2
:1033D0009F92AF92BF92CF92DF92EF92FF920F93A4
:1033E0001F93CF93DF93E82EF92E8B01EA01CA01D8
:1033F00062DF6B01101611064CF5672BB1F1EE2D53
:10340000FF2D80E090E04FEF5FEF20E030E0AA2456
:10341000AA94BB24BA9403C0C216D30649F1682FFC
:10342000892E919001967E01E20EF31ED7017C91C8
:10343000971224C04F3FBFEF5B0711F4462F582D62
:103440002F5F3F4F801791073CF309C04FEF5FEFAD
:1034500020E030E004C04FEF5FEF20E030E02C15BB
:103460003D054CF0842F952F11C08FEF9FEF0EC0BC
:10347000842F952F0BC08FEF9FEF08C08017910707
:1034800054F74A2D5B2D20E030E0C9CFDF91CF917A
:103490001F910F91FF90EF90DF90CF90BF90AF9072
:1034A0009F908F900895DC011496ED91FC911597F3
:1034B0009081992381F0319620E030E040E050E0A7
:1034C000B901690F711D460F571F919128513C4F4B
:1034D0009111F6CF02C040E050E0CA01089597FB79
:1034E000072E16F4009406D077FD08D013D007FC01
:1034F00005D03EF4909581959F4F08957095619504
:103500007F4F0895EE0FFF1F881F8BBF0790F69126
:10351000E02D1994AA1BBB1B51E107C0AA1FBB1FBA
:10352000A617B70710F0A61BB70B881F991F5A954F
:10353000A9F780959095BC01CD0108950F931F9335
:10354000CF93DF938230910510F482E090E0E09118
:10355000A403F091A50320E030E0A0E0B0E03097B4
:1035600019F1408151810281138148175907C8F030
:103570008417950769F4109731F012960C931297FF
:1035800013961C9327C00093A4031093A50322C095
:103590002115310519F04217530718F49A01BD019E
:1035A000EF01DF01F801DBCF21153105F9F0281B10
:1035B000390B2430310580F48A819B8161157105B6
:1035C00021F0FB019383828304C09093A503809331
:1035D000A403FE01329644C0FE01E20FF31F819363
:1035E000919322503109398328833AC02091A20354
:1035F0003091A303232B41F4209102023091030266
:103600003093A3032093A203209100023091010282
:103610002115310541F42DB73EB740910402509178
:103620000502241B350BE091A203F091A303E217DE
:10363000F307A0F42E1B3F0B2817390778F0AC01D5
:103640004E5F5F4F2417350748F04E0F5F1F5093B2
:10365000A3034093A2038193919302C0E0E0F0E0C2
:10366000CF01DF91CF911F910F910895CF93DF93F9
:10367000009709F481C0FC01329713821282A09155
:10368000A403B091A503109781F420813181820FAA
:10369000931F2091A2033091A3032817390751F5F6
:1036A000F093A303E093A20367C0ED0120E030E0B4
:1036B000CE17DF0740F44A815B819E014115510519
:1036C000F1F0EA01F5CFD383C28340815181840FA9
:1036D000951FC817D90759F488819981840F951FC0
:1036E0000296918380838A819B81938382832115B3
:1036F000310529F4F093A503E093A4033DC0E9014B
:10370000FB83EA8349915991C40FD51FEC17FD073C
:1037100061F480819181840F951F0296E90199835C
:103720008883828193819B838A83E0E0F0E0129614
:103730008D919C911397009719F0FD01DC01F7CF53
:103740008D919C9111979D012E5F3F4F820F931F8A
:103750002091A2033091A3032817390769F4309709
:1037600029F41092A5031092A40302C013821282BE
:10377000B093A303A093A203DF91CF91089510E02B
:10378000CEE7D0E000E005C0802FFE01BBDE219631
:10379000011DC038D10780E00807B1F7F894FFCFCA
:1037A0000000A60320004F4B003D00312C383000B4
:1037B000474F5420534F4D455448494E47002B49DD
:1037C00050440048545450004745540052657370AB
:1037D0006F6E64696E6720746F20636C69656E74C8
:1037E00020776974682049443A002D310032003353
:1037F000003400350036003700380039002D002C29
:1038000000526573706F6E64696E670041542B528D
:1038100053540041542B43574D4F44450041542BC2
:103820004349504D55580041542B4349505345523C
:103830005645520041542B43495053454E44004194
:10384000542B4349505354415455530041542B4336
:103850004950434C4F5345004E4F5420464F554E10
:1038600044003C21646F63747970652068746D6CEA
:103870003E3C68746D6C3E3C686561643E3C7469B6
:10388000746C653E506C616365486F6C6465723C36
:103890002F7469746C653E3C2F686561643E3C62C0
:1038A0006F64793E3C48313E5468697320697320E7
:1038B0006120706C616365686F6C64657220736908
:1038C000746520666F72206E6F772C203C2F483114
:1038D0003E3C2F626F64793E3C2F68746D6C3E00F5
:0238E0002F00B7
:00000001FF
